:020000040800F2
:10000000902500209D010008671F00085118000876
:10001000631F000849120008DB3E000800000000D2
:10002000000000000000000000000000293000086F
:10003000C514000800000000030200089930000801
:10004000B7010008B7010008B7010008B7010008B0
:10005000B7010008B7010008B7010008B7010008A0
:10006000B7010008B7010008B7010008B701000890
:10007000B7010008B7010008B7010008B701000880
:10008000B7010008B7010008B7010008B701000870
:10009000B7010008B7010008B7010008B701000860
:1000A000B7010008B7010008B7010008B701000850
:1000B000B7010008BD340008B7010008B701000807
:1000C000B7010008B7010008B7010008B701000830
:1000D000B7010008B7010008B7010008B701000820
:1000E000B7010008B7010008B7010008B701000810
:1000F000B7010008B7010008B7010008B701000800
:10010000B7010008B7010008B7010008B7010008EF
:10011000B7010008B7010008B7010008B7010008DF
:10012000B7010008B7010008B7010008B7010008CF
:10013000B7010008B7010008B7010008B7010008BF
:10014000B7010008B7010008B7010008B7010008AF
:10015000B7010008B7010008B7010008B70100089F
:10016000B7010008B7010008B7010008B70100088F
:10017000B7010008B7010008B7010008B70100087F
:10018000B7010008B7010008DFF80CD000F096FBBB
:1001900000480047C17000089025002006488047AD
:1001A00006480047FEE7FEE7FEE7FEE7FEE7FEE75C
:1001B000FEE7FEE7FEE7FEE745320008890100089A
:1001C000EFF3108072B6704780F3108870472448B0
:1001D0004FF0FF010170002080F3098821480121C0
:1001E000017021484FF08051016062B6FEE71E4861
:1001F0004FF08051016070471B484FF08051016003
:10020000704772B62EF01F0E4EF0090EEFF3098004
:1002100050B11EF0100F08BF20ED108A203880E882
:10022000F00F12490968086000B5114880475DF871
:1002300004EB104810490A7802700C480F490A680C
:100240000260106890E8F00F20301EF0100F08BF19
:10025000B0EC108A80F309884EF0040E62B6704745
:1002600022ED00E04C00002004ED00E054000020EE
:10027000F126000847000020480000205C00002014
:100280002DE9FE4F804681EA0300C00F0C46009026
:1002900021F0004123F00045B8EB0200A94105D24E
:1002A0004046214690461C460B46024623F000403D
:1002B000104347D0270DC7F30A00C3F30A51029039
:1002C000401A019040286BDAC3F3130040F4801BFE
:1002D0000098924620B10023D2EB030A63EB0B0B8C
:1002E00001985946C0F14002504600F0F7F9064621
:1002F0000D4650465946019A00F00FFA10EB0800DF
:100300006141002487EA115284EAE7731A4340D01E
:10031000009A62B3019A012A4FEA075215DC001BCA
:1003200061EB02014FF0004202EA0752CDE90042C0
:10033000001C41F5801132462B4600F044FA03B010
:10034000BDE8F08F40462146F9E7001B61EB020152
:10035000001C41F5801300185B412018A2F500171E
:1003600047EB030140EAD570B6196D4111E06D0805
:100370004FEA360645EAC0754FEA0752001B61EBAB
:100380000201001C41F5801149084FEA30000019B4
:10039000514132462B4603B0BDE8F04F00F006BA9B
:1003A0000098012240000023D0EB020263EBE073CF
:1003B000009821464FEAE074B8EB000061EB0401BD
:1003C000E9E783F000435BE781F0004158E72DE95E
:1003D000FE4F81EA030404F0004421F00041009440
:1003E0004FF0000B23F0004350EA01045ED052EAC4
:1003F00003045BD0C3F30A54C1F30A552C44A4F29E
:10040000F3340194A0FB0254C1F3130141F48011B1
:10041000C3F3130343F4801301FB024400FB034EB8
:10042000840A970A44EA815447EA8357A4FB076881
:1004300002958D0A05FB07854FEA932C04FB0C54AB
:100440002705029D4FEA065847EA1637B5EB08051F
:100450006EEB070C870E920E47EA811742EA831271
:10046000A7FB0201B6EB0B0164EB00042B0D43EA82
:100470000C335E1844EB1C50DA465146E7FB020190
:10048000C5F313044FEA0B3343EA14534FEA043223
:10049000019C43EA0603A4F10C040294009CCDE9FC
:1004A00000B400F090F903B0BDE8F08F00200146E1
:1004B000F9E72DE9F04D81EA030404F0004B21F047
:1004C000004514464FF0000A23F0004150EA0502AF
:1004D00020D054EA01021DD0C5F30A570246C5F3E5
:1004E0001303C1F31300C1F30A5640F4801543F41B
:1004F0008013A7EB0608101BD64608F2FD3873EBF5
:10050000050002D308F1010801E092185B41B8F13F
:10051000000F03DA00200146BDE8F08D00204FF403
:100520008011064684460EE0171B73EB050705D3C2
:10053000121B63EB050306434CEA010C49084FEA22
:10054000300092185B4150EA0107EDD152EA0300F6
:1005500012D082EA040083EA0501084305D0101B8B
:10056000AB4106D20122002306E000224FF00043F7
:1005700002E06FF0010253101AEB06004CEB085139
:1005800010EB0A0041EB0B01BDE8F04D00F00EB995
:100590000EB5C10F80EAE0700844CA07002140F29E
:1005A00033438DE80E000A460B4600F00CF903B009
:1005B00000BD70B5C1F30A5201F000450024C1F33B
:1005C000130140F2FF3341F480119A4201DA002016
:1005D00070BD40F233439A42A2F2334203DC5242EE
:1005E00000F08BF800E090402C43F1D0404270BD09
:1005F00000F0004230F000400AD0C10D01F56071FA
:10060000C0F3160042EA0151C20840071143704787
:1006100000200146704701F0004330B421F0004152
:1006200050EA010206D00A0DA2F56072C1F313016F
:10063000002A02DC30BC00207047440F44EAC104A9
:10064000C100E01830BC00EBC25000F078B830B503
:100650000B46014600202022012409E021FA02F580
:100660009D4205D303FA02F5491B04FA02F528441A
:10067000151EA2F10102F1DC30BD2DE9F05F054647
:10068000002092469B4688460646814640241BE051
:10069000284641464746224600F02FF853465A4620
:1006A000C01A914110D311461846224600F016F8A0
:1006B0002D1A67EB01084F4622460120002100F069
:1006C0000DF817EB00094E41201EA4F10104DFDCF8
:1006D000484631462A464346BDE8F09F202A04DBBF
:1006E000203A00FA02F1002070479140C2F1200345
:1006F00020FA03F3194390407047202A04DB203A84
:1007000021FA02F00021704721FA02F3D040C2F131
:1007100020029140084319467047202A06DBCB1778
:10072000203A41FA02F043EAE07306E041FA02F3AC
:10073000D040C2F120029140084319467047002979
:10074000A8BF7047401C490008BF20F00100704757
:1007500010B4B0FA80FC00FA0CF050EA010404BFB7
:1007600010BC704749B1CCF1200421FA04F411FA0D
:100770000CF118BF012121430843A3EB0C01CB1D51
:100780004FEA00614FEA102042BF002010BC7047C2
:1007900000EBC35010440029A4BF10BC7047401C9C
:1007A000490008BF20F0010010BC704710B5002BB5
:1007B00008DA401C41F1000192185B411A4301D153
:1007C00020F0010010BD2DE9F04D92469B4611B17D
:1007D000B1FA81F202E0B0FA80F220329046FFF7DF
:1007E0007DFF04460F4640EA0A0041EA0B015346EA
:1007F0005A46084313D0114653EA010019D0C8F1F4
:1008000040025046FFF779FF05460E4650465946CE
:100810004246FFF763FF084305D0012004E020466D
:100820003946BDE8F08D0020054346EAE0762C43CA
:1008300037430A986305E40AA0EB08000022FD0A8A
:1008400044EA47540A3002D500200146E9E7010591
:1008500010196941DDE9084500196941BDE8F04D0D
:10086000A4E7C1F30A52C1F3130140F2FF3341F48C
:1008700080119A4202DA00200146704740F2334369
:100880009A42A2F2334202DC5242FFF736BFFFF730
:1008900025BF000030B5002904DB4FF00044404282
:1008A00064EB0101002B04DB4FF00044524264EB87
:1008B0000303994208BF904230BD0000064C074D2B
:1008C00006E0E06840F0010394E807009847103420
:1008D000AC42F6D3FFF75CFC44770008647700086D
:1008E0002DE9F04D00231A461B1A8A4103DB002034
:1008F0000146BDE8F08DC1F30A52C1F3130141F482
:1009000080154FF0000BD10702D100186D41521E27
:100910000027044640F2FF11384601EB620A3E46CA
:100920008046024600204FF48011FFF7E6FEC21910
:100930007141BB1846EB0100B4EB030C75EB000CE6
:1009400004D3E41A65EB000517460E46241908F196
:1009500001006D4180463428E3DDF91946EB0600BD
:10096000091BA84103D24FF0FF32134601E00022D9
:1009700013461BEB070046EB0A51BDE8F04DFFF7AD
:1009800015BF0EB540F2334102910021CDE90011AF
:100990000A460B46FFF717FF03B000BD30B58C18B1
:1009A00010F8012B12F00F0301D110F8013B1209CE
:1009B00006D110F8012B03E010F8015B01F8015B90
:1009C0005B1EF9D101E001F8013B521EFBD1A142AF
:1009D000E6D3002030BD000000B52DED108B9DB09A
:1009E000B0EE40AAF0EE60AAB0EE41BAF0EE61CAF5
:1009F000F0EE42BAB0EE62CAF0EE439AF0EE638ACD
:100A0000B0EE449AFE4890ED000A20EE000A8DED0B
:100A10000E0A90ED000AFB48D0ED000A20EE200AF5
:100A2000B0EE40DAF64890ED000AF748D0ED000A43
:100A300020EE200AB0EE40FAF14890ED000AF348AB
:100A4000D0ED000A20EE200A8DED0D0AED4890ED64
:100A5000000A20EE000AF0EE40DA90ED000AEA48C3
:100A6000D0ED000A20EE200A8DED0C0AE54890ED4D
:100A7000000AE648D0ED000A20EE200AF0EE40FA27
:100A8000E14890ED000A20EE000A8DED0B0A90ED92
:100A9000000ADE48D0ED000A20EE200AB0EE40EA5F
:100AA00090ED000A20EE000A8DED0A0A6CEEAC0A09
:100AB0004BEEAB0A4CEE0C0AB0EE600A06F0E2FA1E
:100AC000B0EE408A2CEE880AF0EE40CA2BEE880A7F
:100AD000F0EE40BA2CEE080AB0EE40CA69EEA90A60
:100AE00048EEA80A49EE090AB0EE600A06F0CAFA12
:100AF000B0EE408A29EE880AF0EE409A28EE880A85
:100B0000F0EE408A29EE080AB0EE409AB0EE000AF4
:100B100069EE800A9DED0B0AB6EE001A31EE401A1E
:100B20009DED0A0A31EE400A20EE800AF0EE000A3E
:100B300068EEA01ADDED0C0A9DED0D1A70EEC10AEB
:100B400001EEA00AF0EE000A69EE200A3FEE8F1ACD
:100B500000EE810A8DED1B0AB0EE000A29EE801A24
:100B60009DED0C0ADDED0D0A30EE200A21EE000AA3
:100B7000F0EE000A28EEA01AF6EE000A70EEED1A6A
:100B8000DDED0A0A71EEE00A01EE200AF0EE000A3D
:100B900069EE200A3EEE4D1A00EE810A8DED1A0A2A
:100BA000B0EE000A29EE800A7FEECF0A20EE200A7E
:100BB000F0EE000A68EEA00A3EEE0D1A00EE810A81
:100BC000F0EE000A29EE201AF6EE000A70EEED1A99
:100BD000DDED0B0A71EEE00A01EE200AF0EE40EACC
:100BE000DDED1B0A20EEA01ADDED1A0A00EEA01AB8
:100BF000B0EE410A03F0C4FE8DED180ACDED19EAFE
:100C00003FEECF0AF0EE000A20EE200A8DED170A23
:100C10003DEE0E0AF0EE000A20EE200A8DED160AD7
:100C20009DED0E0A70EE6D0A9DED0B0A70EEC00A86
:100C30009DED0A0A30EE800A8DED150A9DED180A29
:100C4000F0EE000A20EE201A9DED0C0ADDED0D0AF3
:100C500030EE200A21EE000ADDED19EAF0EE000A7E
:100C60006EEEA00A3FEECF1A00EE810A8DED140A57
:100C70009DED180AF0EE000A60EE200AB6EE000ABA
:100C800030EE6D1A9DED0A0A31EE400A20EE800A20
:100C9000DDED19EAF0EE000A6EEEA00A3DEE0E1A46
:100CA00000EE810A8DED130A9DED180AF0EE000AA0
:100CB00020EE200A7EEE4D0A20EE200ADDED19EA34
:100CC000F0EE000A2EEEA01AF6EE000A70EEED1A13
:100CD000DDED0B0A71EEE00A01EE200A8DED120A3D
:100CE0009DED150A2BEE800ADDED160A0CEE600A6A
:100CF000DDED120A28EEA01ADDED130A09EE601AE6
:100D000030EE010A8DED110A9DED170A2CEE000A56
:100D1000DDED150A0CEEE00ADDED140A29EE201ACD
:100D2000DDED120A09EEE01A30EE010A8DED100A2F
:100D30009DED160A2CEE800ADDED170A0BEEE00A97
:100D4000DDED130A29EEA01ADDED140A08EEE01A13
:100D500030EE010A8DED0F0A00F042FCF0EE000AC1
:100D600080EE201A2A4880ED001A9DED110AB5EE9A
:100D7000C00AF1EE10FA7CD09DED100AB5EEC00A63
:100D8000F1EE10FA75D09DED0F0AB5EEC00AF1EE46
:100D900010FA6ED09DED110ADFED1E0A60EE200AFA
:100DA00090ED001A1C4890ED000A00EE810A80EDDB
:100DB000000A9DED100ADFED170A60EE200A1448C4
:100DC00090ED001A154890ED000A00EE810A80EDC2
:100DD000000A9DED0F0ADFED0F0A60EE200A0C48B5
:100DE00090ED001A0E4890ED000A00EE810A80EDA9
:100DF000000A9DED110AB0EE001AF0EE4A0A11E069
:100E0000E8000020EC000020F0000020F4000020AA
:100E1000FC0000200AD7A33B0001002004010020B1
:100E20000801002041EE000AF64890ED000A30EE7D
:100E3000800AB0EE40AA9DED100AB0EE001AF0EE66
:100E40006A0A41EE000AF04890ED000A30EE800A8E
:100E5000F0EE40AA9DED0F0AB0EE001AF0EE4B0A3C
:100E600041EE000AE94890ED000A30EE800AB0EE4B
:100E700040BAE74890ED000AB1EE400A20EE0A0AB7
:100E8000E448D0ED000A00EEEA0AE348D0ED000A9B
:100E900000EECB0AE14890ED001AE148D0ED000ADF
:100EA00040EE010AC0ED000A90ED000A20EE0A0AA9
:100EB000D848D0ED000A00EE8B0AD748D0ED000AE2
:100EC00000EEEA0AD54890ED001AD148D0ED000AAC
:100ED00040EE010AC0ED000AD14890ED000A20EE74
:100EE0002A0ACB48D0ED000A00EECB0ACA48D0ED62
:100EF000000A00EE8A0AC94890ED001AC548D0EDF4
:100F0000000A40EE010AC0ED000AC54890ED000A53
:100F100020EE0B0ABE48D0ED000A00EEAA0ABD483A
:100F2000D0ED000A00EECA0ABC4890ED001ABA489B
:100F3000D0ED000A40EE010AC0ED000AB848D0ED3D
:100F4000000A60EEA00AB24890ED001AD0ED001A37
:100F500041EE210AAF4890ED001AD0ED001A41EEA3
:100F6000210AAD4890ED001AD0ED001A41EE210A99
:100F7000B0EE600A06F086F8B0EE408AA84890ED20
:100F8000000A20EE080A80ED000AA14890ED000A50
:100F900020EE080A80ED000A9E4890ED000A20EE3F
:100FA000080A80ED000A9C4890ED000A20EE080A2D
:100FB00080ED000A964890ED000AF8EE000A20EE57
:100FC000200AD0ED000A20EE200A9348D0ED000A56
:100FD000B0EE001A60EE810A90ED001A00EEC10A30
:100FE000F7EE000A30EE200A10EE101A0846FFF75E
:100FF000FFFACDE90201864890ED000AF0EE000A02
:1010000020EE200A8348D0ED000A20EE200A844812
:10101000D0ED000AB0EE001A60EE810A7E4890ED35
:10102000001A00EEC10A10EE101A0846FFF7E0FAA7
:10103000CDE900019DED021B9DED000B03F0D0FA00
:101040008DED040B9DED040B51EC100B81F0004174
:101050009FED740B53EC102BCDE906019DED060BB3
:1010600051EC100BFFF7B3F9CDE908019DED080B2A
:1010700051EC100BFFF7CFFA6C490860084690ED71
:10108000000AB5EEC00AF1EE10FA07D290ED000AA0
:10109000DFED670A30EE200A80ED000A634890ED2C
:1010A000000ADFED630AB4EEE00AF1EE10FA07DDA4
:1010B00090ED000ADFED5E0A30EE600A80ED000A76
:1010C000544890ED000AF0EE000A20EE200A524843
:1010D000D0ED000A20EE200A5148D0ED000AB0EE13
:1010E000001A60EE810A4A4890ED001A00EE810A6B
:1010F00010EE101A0846FFF77BFACDE904019DEDCA
:10110000040B02F045FF8DED060B9FED460B53ECF3
:10111000102B9DED060B51EC100BFFF758F9CDE9A4
:1011200008019DED080B51EC100BFFF774FA4149D3
:101130000860374890ED000AF8EE000A20EE200A19
:10114000D0ED000A20EE200A3248D0ED000AB0EEC1
:10115000001A60EE810A90ED001A00EEC10AF7EE67
:10116000000A30EE200A10EE101A0846FFF740FA87
:10117000CDE902012A4890ED000AF8EE000A20EEBF
:10118000200A2448D0ED000A20EE200A2048D0EDA5
:10119000000AB0EE001A60EE810A1F4890ED001AB6
:1011A00000EE810A10EE101A0846FFF721FACDE989
:1011B00000019DED021B9DED000B03F011FA8DED7A
:1011C000040B9DED040B51EC100B81F000419FEDE1
:1011D000150B53EC102BCDE906019DED060B51ECE0
:1011E000100BFFF7F4F8CDE908019DED080B51EC69
:1011F000100BFFF710FA104908601DB0BDEC108B02
:1012000000BD0000000100200401002008010020B2
:10121000EC000020F0000020F4000020FC00002082
:10122000E8000020CB67791EDCA54C407800002048
:101230000000B44370000020740000207047704725
:10124000704770477047704700BFFEE700B589B030
:101250000121042001F028FE4FF470700790022055
:101260008DF8200003208DF8210000208DF8220049
:1012700001208DF8230007A9514800F0EBF9022264
:1012800006214F4800F02EFA022207214C4800F0B8
:1012900029FA022208214A4800F024FA02220921F0
:1012A000474800F01FFA0121022001F00DFE4548D9
:1012B00002F06AFA4FF6FF7001905320ADF800007B
:1012C0000020ADF80800ADF802008DF80A0069466C
:1012D0003C4802F02BFD0020ADF80C00ADF80E00EC
:1012E0000120ADF810000020ADF812000B20ADF881
:1012F000140003A9334802F02CFB0420ADF80C00C5
:101300000020ADF80E000120ADF810000020ADF86F
:1013100012000B20ADF8140003A92A4802F019FBB3
:101320000820ADF80C000020ADF80E000120ADF84B
:1013300010000020ADF812000B20ADF8140003A936
:10134000204802F006FB0C20ADF80C000020ADF8A0
:101350000E000120ADF810000020ADF812000B20A7
:10136000ADF8140003A9174802F0F3FA1D208DF818
:10137000180000208DF8190002208DF81A000120B5
:101380008DF81B0006A800F0FFFD012202210D4888
:1013900002F016FB012204210A4802F011FB01228F
:1013A0000821084802F00CFB01221021054802F038
:1013B00007FB0121034802F0CCF909B000BD000091
:1013C00000080240000400402DE9F0412DED048B9F
:1013D00005460E4614461F46B5F57A7F01DA4FF4EE
:1013E0007A75B5F5FA6F01DD4FF4FA65B6F57A7FD7
:1013F00001DA4FF47A76B6F5FA6F01DD4FF4FA664A
:10140000B4F57A7F01DA4FF47A74B4F5FA6F01DD3E
:101410004FF4FA64B7F57A7F01DA4FF47A77B7F5CB
:10142000FA6F01DD4FF4FA67A5F2FA50FFF7B0F852
:1014300041EC190B9FED1D0B53EC102BFEF7C7FF72
:1014400041EC180BFFF7E7F81A490860A6F5BF60F2
:10145000FFF79EF841EC190B9FED140B53EC102B8A
:10146000FEF7B5FF41EC180BFFF7D5F812490860FD
:10147000A7F5BD60FFF78CF841EC190B9FED0B0B46
:1014800053EC102BFEF7A3FF41EC180BFFF7C3F84A
:101490000A49086000EE104AB8EE400A084880ED9C
:1014A000000ABDEC048BBDE8F08100007B14AE4760
:1014B000E17A843F280100202C0100203401002023
:1014C000300100207047000086B000BF35E004F016
:1014D000DDFE00F02BF9194890ED000AF2EE040A47
:1014E00020EE200ABDEEC00A10EE100A00B2144928
:1014F00091ED000ADFED130A20EE200ABDEEC00ACE
:1015000010EE101A09B2104A92ED000ADFED0D0A32
:1015100020EE200ABDEEC00A10EE102A12B20023FF
:10152000CDE901321A460093CDE903101946184659
:1015300005F08EFE012001F0DFF8C8E778000020FA
:10154000740000200000C842700000201CB501AAF1
:10155000911E684600F01CF9BDF9020000EE100A69
:10156000B8EEC00A0B4880ED000ABDF9000000EE9D
:10157000100AB8EEC00A084880ED000ABDF9040060
:10158000404200EE100AB8EEC00A044880ED000A9E
:101590001CBD0000C4000020C8000020CC000020BA
:1015A000DFED0C0AB0EE600A4FF08040406A0A4955
:1015B000086000204FF0804148620748D0ED000AE3
:1015C000F8EE600A9FED051AC0EE811AB0EE610ACE
:1015D0007047000000000000400100200024744912
:1015E000DFED0B0AB0EE600A0A4800680A4908609D
:1015F0000020084908600848D0ED000AF8EE600AAB
:101600009FED061AC0EE811AB0EE610A7047000025
:1016100000000000240C0040440100200024744914
:101620001CB50121084601F03FFC2020009001205C
:101630008DF8040000208DF8060003208DF80500C9
:1016400000208DF807006946014800F003F81CBD32
:1016500000000240F0B50A4600210023002400BF2C
:101660003DE0012505FA01F3156805EA03049C42F3
:1016700034D105684F000326BE40B5430560157997
:101680004E00B5400668354305601579012D02D03E
:101690001579022D16D185684F000326BE40B5434B
:1016A000856055794E00B54086683543856045684C
:1016B00001268E40B5434560456896798E40B6B2A6
:1016C00035434560C5684F000326BE40B543C5603D
:1016D000D5794E00B540C6683543C560491C102910
:1016E000BFD3F0BDF0B5002300244D07ED0E02FA84
:1016F00005F3CE1000F1200555F826504E07F70EE1
:101700000F26BE40B543CF1000F1200646F8275003
:10171000CE1000F1200555F8265045EA0304CE10FE
:1017200000F1200545F82640F0BD000010B50F4837
:1017300090ED004A0E48D0ED003A0E4890ED003A88
:101740000D48D0ED002A0D4890ED002A0C48D0ED50
:10175000001A0C4890ED001A0B48D0ED000A0B4817
:1017600090ED000AFFF738F910BD0000CC00002012
:10177000C8000020C4000020B4000020B0000020F9
:10178000AC000020C0000020BC000020B8000020F9
:101790007CB504460D4616466B46062203211E20E4
:1017A00000F019FB9DF801009DF8001040EA0120AF
:1017B00000B22080B4F90000B0F5004F03DB2088B0
:1017C000401C00B220809DF803009DF8021040EA02
:1017D000012000B23080B6F90000B0F5004F03DB05
:1017E0003088401C00B230809DF805009DF8041040
:1017F00040EA012000B22880B5F90000B0F5004FA2
:1018000003DB2888401C00B228807CBD70B50546EB
:101810000C4600F0FFF83C2000F0C8F802F060FB36
:1018200018B100F01DF9012070BD284600F0BEF887
:1018300002F056FB204600F0B9F802F051FB18B157
:1018400000F00EF90120EFE700F00AF90020EBE7C5
:1018500000BFFEE710B500200F4908600F48006880
:1018600020F440200D4908600846006840F48020BC
:10187000086000200A49C1F8A402022004F00CFC10
:10188000012005490860022004F006FC00200449FC
:10189000C1F8A00210BD0000A08240420004024036
:1018A000008040421CB50121022001F0FDFA012018
:1018B0008DF804004FF44070009001208DF807006F
:1018C00003208DF8050000208DF8060069460548C4
:1018D000FFF7C0FE0120044908600449C1F8A002D6
:1018E0001CBD000000040240A4824042008040422F
:1018F00010B500200F4908600F48006820F4402010
:101900000D4908600846006840F480200860012006
:101910000A49C1F8A402022004F0BEFB01200549D7
:101920000860022004F0B8FB00200449C1F8A002BE
:1019300010BD0000A08240420004024000804042EE
:1019400070B5054600241648006820F4402014496C
:101950000860084600680860002616E0002011496B
:101960000860022004F098FB01200F49C1F8A00292
:101970006006040E0B487C38006808B1601CC4B2D5
:10198000012004F089FB701CC6B2082EE6DB15B9F5
:10199000FFF7AEFF01E0FFF75DFF204670BD0000DE
:1019A00000040240A08240420080404270B50446DC
:1019B0001548006820F44020134908600846006874
:1019C00040F480200860002010490860002517E0DE
:1019D000E0090E49091D08606006040E052004F0A8
:1019E0005BFB01200A49C1F8A002022004F054FB6D
:1019F000002006490860022004F04EFB681CC5B2B6
:101A0000082DE5DB70BD000000040240A0824042CA
:101A10000080404210B50F48006820F440200D4976
:101A200008600846006840F48020086001200A49E8
:101A300008600A49C1F8A002052004F02DFB00202F
:101A400005490860052004F027FB00200349C1F880
:101A5000A00210BD00040240A48240420080404227
:101A600010B50F48006820F440200D490860084672
:101A7000006840F48020086000200A4908600A4994
:101A8000C1F8A402052004F007FB01200549086005
:101A90000549C1F8A402052004F0FEFA10BD0000BB
:101AA00000040240A082404200804042DFED0C0A68
:101AB000B4EEE00AF1EE10FA04DDDFED090AB0EE53
:101AC000600A0CE0DFED070AB4EEE00AF1EE10FA6E
:101AD00004D2DFED040AB0EE600A00E000BF7047F8
:101AE0000000FA4400C05A4410B5FFF759FD5648AB
:101AF00080ED000A5548D0ED000A554890ED000AE7
:101B0000544801F0F7F8544880ED000A5348D0EDEE
:101B1000000A534890ED000A524801F0EBF8524891
:101B200080ED000A5148D0ED000A514890ED000ABE
:101B3000504801F0DFF8504880ED000A4F48D0EDE2
:101B4000000A494890ED001A70EE810A424890ED73
:101B5000001A70EE810A484890ED001A70EE810A72
:101B6000B0EE600AFFF7A2FFBCEEC00A10EE100A4A
:101B7000434908804148D0ED000A3B4890ED001AE7
:101B800070EE810A344890ED001A70EEC10A3A48AE
:101B900090ED001A70EEC10AB0EE600AFFF786FF02
:101BA000BCEEC00A10EE100A364908803348D0ED6A
:101BB000000A2D4890ED001A70EEC10A264890EDFB
:101BC000001A70EE810A2C4890ED001A70EEC10ADE
:101BD000B0EE600AFFF76AFFBCEEC00A10EE100A12
:101BE000294908802548D0ED000A1F4890ED001AC9
:101BF00070EEC10A184890ED001A70EEC10A1E4836
:101C000090ED001A70EE810AB0EE600AFFF74EFF09
:101C1000BCEEC00A10EE100A1C490880174890ED6F
:101C2000000ADFED1B0AB4EEE00AF1EE10FA09D863
:101C30004FF47A70124908801249088012490880CE
:101C40001249088010BD000010010020280100206A
:101C500074000020F0200020140100202C0100203E
:101C600070000020242100201801002034010020F1
:101C700078000020BC2000201C0100203001002042
:101C80002001002022010020240100202601002044
:101C9000004083442DE9FC4104460D4616466B4640
:101CA00006223B21682000F096F80746BFB99DF850
:101CB00001009DF8001040EA012000B220809DF84C
:101CC00003009DF8021040EA012000B228809DF830
:101CD00005009DF8041040EA012000B2308038462B
:101CE000BDE8FC812DE9FC4104460D4616466B46D5
:101CF00006224321682000F06EF80746BFB99DF820
:101D000001009DF8001040EA012000B220809DF8FB
:101D100003009DF8021040EA012000B228809DF8DF
:101D200005009DF8041040EA012000B230803846DA
:101D3000BDE8FC8110B5FFF7B5FD80216B2000F0F8
:101D4000EEF8642004F080F900216B2000F0E7F841
:101D5000012000F099F8012000F09EF84FF47A700D
:101D600000F0BFF80021382000F0D9F8002123202E
:101D700000F0D5F80221372000F0D1F80A2004F055
:101D800063F900216A2000F0CAF80A2004F05CF927
:101D9000752000F05AF8044614210020FFF736FDA4
:101DA00020210120FFF732FD00210220FFF72EFD48
:101DB000682C0CD101216B2000F0B1F800216C20BF
:101DC00000F0ADF84FF47A7000F08BF801E00120DC
:101DD00010BD0020FCE72DE9F04106460F461446F1
:101DE0001D46FFF717FE002141EA4601C8B2FFF782
:101DF000DDFD02F075F820B1FFF732FE0120BDE8ED
:101E0000F0813846FFF7D2FD02F06AF8FFF702FED4
:101E1000012101EB4601C8B2FFF7C8FD02F060F8EE
:101E20000DE0012C04D10020FFF78AFD287003E0AB
:101E30000120FFF785FD2870601EC4B26D1C002CC8
:101E4000EFD1FFF70DFE0020D9E770B50446FFF78C
:101E5000E1FDD020FFF7AAFD02F042F82046FFF78F
:101E6000A5FD02F03DF8FFF7D5FDD120FFF79EFD5F
:101E700002F036F80020FFF763FD0546FFF738FD56
:101E8000FFF7EEFD284670BD10B50446E006010ED2
:101E90001C2000F044F810BD10B50446E006010E09
:101EA0001B2000F03CF810BD70B504460025BC2C8A
:101EB00001DD012510E0622C01DD02250CE02A2C59
:101EC00001DD032508E0142C01DD042504E00A2CC3
:101ED00001DD052500E0062529461A2000F01FF83F
:101EE00070BD70B504460025B4F57A7F01DD4FF46E
:101EF0007A74042C00DA04244FF47A7090FBF4F026
:101F0000401EC5B22946192000F009F805462646AC
:101F100004EBD671C1F34F00FFF7C6FF70BD70B57B
:101F200005460C46FFF776FDD020FFF73FFD01F098
:101F3000D7FF18B1FFF794FD012070BD2846FFF7C9
:101F400035FD01F0CDFF2046FFF730FD01F0C8FF61
:101F500018B1FFF785FD0120EFE7FFF781FD0020B5
:101F6000EBE700BFFEE710B5802000F0F3FF48B1BB
:101F7000012000F0FBFF0121182000F0FFFF80206E
:101F800000F0E2FF10BD000070B5002100230F2219
:101F9000C4781CB3174C246804F4E064C4F5E0640E
:101FA000C4F30721C1F10404E3B20A4144789C4020
:101FB000E1B28478144021430C07210E0E4C0578C1
:101FC0006155047804F01F050124AC4005786D11BB
:101FD000AD0005F1E025C5F8004109E0047804F002
:101FE0001F050124AC40054D0678761145F82640C2
:101FF00070BD00000CED00E000E400E080E100E0D6
:1020000002490143024A1160704700000000FA05CE
:102010000CED00E010B500F00FF800F025FC00F02A
:102020004DFC00F06DFC00F01DFC00F0A1FC00F088
:10203000C7FC00F002F810BD7047704706480078F2
:10204000012808D105480078FF2804D20348007809
:10205000401C0249087070474C00002045000020D9
:1020600010B500241A480078012830D1FEF7A8F8EE
:1020700004461848007820B116480078401E1549DB
:10208000087014480078F8B913480078E0B900F0F7
:1020900003FD12481249097850F8210011490860DF
:1020A0000F4800781049097888420DD00D48006823
:1020B000806A401C0B49096888620C480068401C13
:1020C0000A490860FEF798F82046FEF77DF810BD33
:1020D0004C00002045000020460000204C1D002040
:1020E000480000205C000020470000203400002051
:1020F00010B500240B480078012811D1FEF760F8D4
:1021000004460948007840B908480078FF2804D2FE
:1021100006480078401C054908702046FEF754F830
:1021200010BD00004C0000204500002046000020AB
:1021300010B5002413480078012821D1FEF740F89B
:10214000044611480078C0B10F480078401E0E497F
:1021500008700846007860B90C48007828B9204615
:10216000FEF732F800F05EFC0AE02046FEF72CF89D
:1021700006E02046FEF728F802E02046FEF724F8A5
:1021800010BD00004C00002046000020450000204B
:1021900010B50B48007890B900F07EFC0948007833
:1021A0000949087009480749097850F82100084989
:1021B00008600846006807490860FEF708F810BD87
:1021C0004C00002048000020470000204C1D00204B
:1021D0005C0000205400002000B501460846FFF7CF
:1021E0002DF800BD2DE9FE4F06460F4690461C46D1
:1021F0004FF000090F2C02D92A20BDE8FE8FFDF711
:10220000DFFF81461E48007820B14846FDF7DCFF1D
:102210003C20F2E71B4850F8240060BB012019491C
:1022200041F824004846FDF7CFFF002342463946D7
:10223000304600F02BF982460020009001900346C2
:10224000024651460290204600F03CFC054635B956
:102250000D48007801280CD100F0E4FB09E0FDF7FF
:10226000AFFF81460020074941F824004846FDF7AA
:10227000ABFF2846C1E74846FDF7A6FF2820BCE78C
:10228000450000204C1D00204C0000202DE9F04F9F
:1022900085B081468A4693461C46DDE90F78129D3B
:1022A000002003900F2C03D92A2005B0BDE8F08F41
:1022B000FDF786FF03902248007820B10398FDF7D0
:1022C00083FF3C20F1E71F4850F8240088BB012021
:1022D0001C4941F824000398FDF776FF2A46414641
:1022E000384600F0F9FC2B465A465146484600F065
:1022F000CDF804901198CDE9008002953A46204629
:102300000E9B049900F0DEFB064636B90E480078B5
:1023100001280CD100F086FB09E0FDF751FF039086
:102320000020084941F824000398FDF74DFF30468E
:10233000BBE7FFE70398FDF747FF2820B5E700005C
:10234000450000204C1D00204C00002000B5014637
:102350000846FEF774FF00BD00B5FEF771FF00BD33
:102360002DE9F04105460F4614464FF000080F2DA9
:1023700005D9FF2D03D02A202070BDE8F08117B9C0
:102380000C202070F9E71448007810B1122020705A
:10239000F3E7FDF715FF8046FF2D03D10F480068D6
:1023A00090F822500E4850F825602EB94046FDF7AF
:1023B0000BFF43202070E0E7012E05D14046FDF7DA
:1023C00003FF43202070D8E7F7634046FDF7FCFE8B
:1023D0000020207000BFD0E74500002054000020FE
:1023E0004C1D002000B5FEF72CFF00BD2DE9F04785
:1023F00006460C464FF0000A0F2E04D9FF2E02D0DD
:102400002A20BDE8F0870CB90920FAE700202060F7
:102410006060FDF7D5FE8246FF2E03D119480068A3
:1024200090F82260184850F8265025B95046FDF71C
:10243000CBFE4320E5E7012D04D15046FDF7C4FE55
:102440004320DEE7287C00F0010020B95046FDF76C
:10245000BBFE4520D5E70027D5F80C90D5F80880BD
:102460005046FDF7B1FE00E07F1C58F8041B002920
:10247000FAD0B8002060A9EB07008000606000205F
:10248000BFE70000540000204C1D002070B504463A
:1024900010464FF48056051F28462E601526051F4E
:1024A00028462E601426051F28462E601326051F79
:1024B00028462E601226051F28462E601126051F6D
:1024C00028462E601026051F28462E600926051F67
:1024D00028462E600826051F28462E600726051F61
:1024E00028462E600626051F28462E600526051F55
:1024F00028462E600426051F28462E600326051F49
:1025000028462E600226051F28462E600126051F3C
:1025100028462E600026051F28462E604FF0807644
:10252000051F28462E60051F28462C606FF0010607
:10253000051F28462E604FF01236051F28462E60D4
:102540004FF00336051F28462E604FF00236051F58
:1025500028462E607610051F28462E60051F284647
:1025600029603126051F28462E603026051F284683
:102570002E602926051F28462E602826051F28467E
:102580002E602726051F28462E602626051F284672
:102590002E602526051F28462E602426051F284666
:1025A0002E602326051F28462E602226051F28465A
:1025B0002E602126051F28462E602026051F28464E
:1025C0002E601926051F28462E601826051F28464E
:1025D0002E601726051F28462E601626051F284642
:1025E0002E604FF01136051F28462E604FF0103632
:1025F000051F28462E604FF00936051F28462E601D
:102600004FF00836051F28462E604FF00736051F8D
:1026100028462E604FF00636051F28462E604FF0E4
:102620000536051F28462E604FF00436051F284644
:102630002E6070BD2DE9F04105464FF000080F2DCA
:1026400002D14720BDE8F0810F2D03D3FF2D01D02B
:102650002A20F7E7FDF7B4FD8046FF2D05D120487D
:10266000006890F82250012608E01D48006890F8A4
:102670002200A84201D1012600E00026194850F8A6
:10268000254024B94046FDF79FFD4820DAE7012C9C
:1026900004D14046FDF798FD4320D3E794F8247019
:1026A0001148C05D94F8251088430F49C855084665
:1026B000C05D30B994F826100C48007888430B4967
:1026C000087094F8200040F0080084F8200040468C
:1026D000FDF77AFD012E01D100F0A4F90020B1E749
:1026E000540000204C1D00204A000020490000201A
:1026F00000B5FEF7A7FD00BD70B5054600261748DA
:10270000007800B170BD1648007800B1FAE71DB33B
:10271000FDF756FD06461348006890F8244012481D
:10272000005D1049096891F8251088430E49085545
:102730000846005D40B90B48006890F826100B4829
:10274000007888430949087006480068C56130462A
:10275000FDF73AFD00F066F900BFD3E74500002021
:1027600046000020540000204A00002049000020BC
:1027700070B5002600F072F8FDF722FD06463148DC
:102780000068401C2F4908603046FDF71DFD2E48AB
:102790000078012853D12D48007820B1012804D0B9
:1027A000022809D103E001250BE0002509E00125FD
:1027B00001202649087004E0012500202349087003
:1027C00000BF00BF05B970BD2148046833E0FDF7C4
:1027D000F7FC0646E06950B3E069401EE061E0693D
:1027E00028BB94F8200000F0370040B114F8200F07
:1027F00000F0C800207001206070203C02E0002042
:1028000084F8210094F8200000F0080078B92434FE
:10281000A0781049097808430E49087020780E49BD
:10282000085C6178084314F824190B4A5054646911
:102830003046FDF7C9FC94F822000F28C7D100BF2D
:10284000C1E70000680000204C0000206400002068
:1028500060000020490000204A00002000B5FEF77B
:10286000F2FC00BD7047000000200A4908600A49D8
:1028700008700A4908700A4908700A4908700A492C
:1028800008600A4908600A4908600A4908600A495C
:1028900008707047680000204500002046000020B6
:1028A0004D0000204C00002034000020500000208B
:1028B000400000203C0000204400002000210A4A83
:1028C0001170002004E00021084A1154411CC8B2D4
:1028D0000228F8D30021064A1170064A1170064AF0
:1028E0001160064A11607047490000204A0000202C
:1028F00047000020480000205C0000205400002019
:1029000070B54FF44C71154800F082F8402114481E
:1029100000F07EF800230FE0581CC5B203EB031053
:102920000E4901EB800405EB051001EB80066661A2
:102930000CA0E063581CC3B20B2BEDD303EB0310C8
:10294000064901EB80040020606106A0E0630020DE
:102950000549086001480549086070BD8C1D0020CC
:102960004C1D00203F0000006000002058000020A7
:1029700000B587B00320002180220A4BCDE9013247
:10298000CDE903104FF6FF700F23074A0090074868
:10299000FFF77CFC06AA06A10F20FFF7E1FC07B0B9
:1029A00000BD00004C1B0020481D0020ED2B00083E
:1029B00075432F4F532D49492049646C6500000031
:1029C00000B587B00320002180220A4BCDE90132F7
:1029D000CDE903104FF6FE700E23074A009007481A
:1029E000FFF754FC06AA06A10E20FFF7B9FC07B0BA
:1029F00000BD00004C190020481B0020152C0008C9
:102A000075432F4F532D49492053746174000000C2
:102A100004E0002200F8012B4A1E91B20029F8D1EF
:102A20007047000010B50024FDF7CAFB04461348A8
:102A30000078F8B912480078E0B900F02DF8114894
:102A40001149097850F82100104908600E480078B3
:102A50000F49097888420DD00C480068806A401CF4
:102A60000A49096888620B480068401C09490860E7
:102A7000FDF7BDFB2046FDF7A7FB10BD450000207C
:102A8000460000204C1D0020480000205C00002073
:102A900047000020340000200649074A1278885C6D
:102AA0000649095C034A515C01EBC001044A1170FC
:102AB0007047000030730008490000204A000020E1
:102AC000480000202DE9F84F05460F4690469946EC
:102AD000DDE90AAB00200090FDF772FB00903C4856
:102AE0000468002C6ED008343949E068086000980A
:102AF000FDF76AFB44F8087CA57600202076607616
:102B0000606144F804BCC4F804A0C4F800800C98C8
:102B10002081A4F80A900020E077E810207705F0E3
:102B20000700E076217F01208840A077E17E012028
:102B30008840607700202062A0626062E0622063CB
:102B400024A06063083C002606E0002104F1400058
:102B500040F82610701CC6B2002EF6D02046FFF7B3
:102B60003BFB2046FFF7F2FBFDF72AFB00901A48DB
:102B700040F825401948006860610020A0611748AE
:102B8000006810B11548006884611448046024345A
:102B9000A078134909780843114908702078114931
:102BA000085C6178084314F824190E4A50540E4802
:102BB0000078401C0C4908700098FDF705FB0020C8
:102BC000BDE8F88F0098FDF7FFFA4220F8E7000013
:102BD000580000203F0000004C1D00206000002035
:102BE000490000204A0000204D000020002400BFC2
:102BF00000BFFDF7E5FA044605480068401C04499B
:102C000008602046FDF7E0FAFFF7A6FBF1E70000B9
:102C100050000020002400BF02E0C820FFF76CFD38
:102C2000194800780028F8D0184800686421B0FBE3
:102C3000F1F0164908600846006828B900201449D8
:102C40000870FF20FFF7F6FC00BFFDF7B9FA044655
:102C5000104800681049086000200E4908602046AE
:102C6000FDF7B2FA0C48006808490968B0FBF1F0BA
:102C7000C0F1640006490870FFF7B4FB00F00EF8DD
:102C80006420FFF739FDE0E7440000203C0000200D
:102C90003800002050000020400000207CB50025B6
:102CA00014E069462846FFF7A1FB064666B90948C5
:102CB00050F8254044B1012C06D0D4E9020100EBC4
:102CC000810060630198A063681CC5B20F2DE8D92C
:102CD0007CBD00004C1D002002F0010343B102F056
:102CE00002032BB102E0491E002308C00029FAD1DB
:102CF00070470000B0EE401AF0EE601AC0ED001A06
:102D000090ED000A30EE410A80ED010A90ED040AD0
:102D100090ED013A30EE030A80ED040A90ED050AC9
:102D200090ED013A20EE030AF0EE402A90ED050AFC
:102D300090ED073A20EE030A90ED013AD0ED023A09
:102D400033EE633A20EE030A204991ED003AC0EEDB
:102D5000033AB0EE632A90ED0B0AB4EEE00AF1EE0E
:102D600010FA01D2D0ED0B0A90ED0C0AB4EEE00A95
:102D7000F1EE10FA03DD90ED0C0AF0EE400A32EEAF
:102D8000A00A30EE020A80ED080A90ED080A90EDE4
:102D9000093AB4EEC30AF1EE10FA03DD90ED090A28
:102DA00080ED080A90ED080A90ED0A3AB4EEC30AE5
:102DB000F1EE10FA03D290ED0A0A80ED080A90EDC8
:102DC000010A80ED020A90ED080A70471001002008
:102DD0009FED1A0A80ED010A9FED180A80ED020AA4
:102DE0009FED160A80ED030A9FED140A80ED000A9C
:102DF0009FED120A80ED050A9FED100A80ED070A8B
:102E00009FED0E0A80ED060A9FED0C0A80ED080A80
:102E10009FED0B0A80ED0A0A9FED0A0A80ED090A70
:102E20009FED090A80ED0B0A9FED080A80ED0C0A60
:102E30009FED020A80ED040A7047000000000000C8
:102E4000000048C40000484400004843000048C354
:102E500000BF18E00C4803880C4802880C48018821
:102E60000C480088FEF7B0FAFEF73EFE0A480388D9
:102E70000A4802880A4801880A48008800F0EAFAED
:102E80000220FFF739FCE5E7300000202E0000208B
:102E90002C0000202A000020260100202401002010
:102EA000220100202001002029B1064A12680243B5
:102EB000044B1A6004E0034A12688243014B1A6013
:102EC000704700003038024029B1064A12680243B8
:102ED000044B1A6004E0034A12688243014B1A60F3
:102EE000704700004038024029B1064A1268024388
:102EF000044B1A6004E0034A12688243014B1A60D3
:102F0000704700002038024029B1064A1268024387
:102F1000044B1A6004E0034A12688243014B1A60B2
:102F2000704700004438024029B1064A1268024343
:102F3000044B1A6004E0034A12688243014B1A6092
:102F400070470000243802400149087070470000B3
:102F50000E38024001460020034A12680A400AB1B6
:102F6000012000E0002070470C3802400021024A96
:102F700011701146087070470238024029B1064AA4
:102F800012780243044B1A7004E0034A1278824319
:102F9000014B1A70704700000D3802401848006855
:102FA00040F001001649086015481030006840F4F0
:102FB00000301349103108601248006A20F47F4045
:102FC000104908620846006A40F4EE40086208466C
:102FD000006820F0F00008600846006840F0A0009B
:102FE000086040F25B1008490880002006490C3157
:102FF0000880091F088042F20C00091F08807047F2
:1030000030380240000002400844004000BF05493B
:10301000098801F080010029F9D0C1B2014A121DCE
:1030200011807047004400407047000070B50446AE
:10303000002500BFFDF7C4F805460423084A002117
:103040000848FFF7CFF80523074A00210748FFF794
:10305000C9F80A20FFF7EEFA2846FDF7B5F870BD6B
:1030600048110020C914000848190020512E0008FA
:10307000042808D14FF0E021096941F004014FF024
:10308000E022116107E04FF0E021096921F004011D
:103090004FF0E0221161704710B5FEF7CFFFFFF748
:1030A00067FBFEF7DDFF10BD3348006840F001000C
:1030B0003149086000BF3048006800F00200002875
:1030C000F9D000202C490831086000BF2A48083098
:1030D000006800F00C000028F8D14FF480702749F8
:1030E00008600846006840F4007008600846006800
:1030F00040F4806008600846006840F00500086001
:103100001D48083000681C490831086008460068FE
:1031100040F480500860084600680860164800685F
:1031200020F08070144908601548091D0860081FC8
:10313000006840F08070091F086000E000BF0E4882
:10314000006800F000700028F8D00B4808300068D4
:1031500020F003000849083108600846006840F084
:103160000200086000BF04480830006800F00C004E
:103170000828F8D17047000000380240003C0240A7
:103180001050010870B50020002202230024022103
:10319000274D2D6805F00C0020B1042806D0082822
:1031A00034D107E0234D244E356033E0234D224EC9
:1031B00035602FE01E4D2D1F2D68C5F380541C4D2A
:1031C0002D1F2D6805F03F0154B11C4DB5FBF1F5E5
:1031D000174E361F3668C6F3881605FB06F209E05F
:1031E000144DB5FBF1F5124E361F3668C6F388163E
:1031F00005FB06F20E4D2D1F2D68C5F301456D1C14
:103200006B00B2FBF3F50C4E356003E0094D0A4E3E
:10321000356000BF00BF064D2D68C5F30315084E8D
:10322000705D054D2D68C540034E356070BD0000D2
:10323000083802400024F4000000002040787D019E
:10324000040000203648006840F4700034490860EB
:103250003448006840F001003249086000BF31483E
:10326000006800F002000028F9D000202D49083144
:10327000086000BF2B480830006800F00C000028F0
:10328000F8D14FF48070284908600846006840F47F
:10329000007008600846006840F4806008600846D6
:1032A000006840F0050008601E48083000681D49AD
:1032B000083108600846006840F4805008600846FD
:1032C000006808601748006820F0807015490860A1
:1032D0001648091D0860081F006840F08070091F2B
:1032E000086000E000BF0F48006800F00070002890
:1032F000F8D00C480830006820F003000949083174
:1033000008600846006840F00200086000BF0548F9
:103310000830006800F00C000828F8D17047000061
:1033200088ED00E000380240003C024010540108E3
:10333000F0B50C46154600210022068C4FF6FE77AC
:103340003E400684018B028C4FF60C7631407E1C89
:1033500006EA03162E4331434FF6F576324044F029
:103360000106324301830284F0BDF0B50C461546D8
:10337000002100220026078C4FF6EF7C07EA0C079D
:103380000784018B028C4FF6FF7707EA041640F69C
:10339000FF4739404FF6FF7707EA033739434FF6C7
:1033A000FF7707EA052739434FF65F773A4046F043
:1033B00010073A4301830284F0BDF0B50C46154670
:1033C000002100220026078C4FF6FF6C07EA0C074D
:1033D0000784818B028C4FF6FF7707EA04264FF6AD
:1033E0000C7739404FF6FF7707EA03172F4339432D
:1033F0004FF2FF573A4046F480773A438183028484
:10340000F0BDF0B50C461546002100220026078CC1
:103410004EF6FF7C07EA0C070784818B028C4FF67F
:10342000FF7707EA043640F6FF4739404FF6FF774B
:1034300007EA052739434FF6FF7707EA0337394391
:1034400045F6FF773A4046F480573A438183028439
:10345000F0BD00002DE9F04104460F4615461E461A
:103460002146084800F02EFC3946064800F02CFCA6
:103470002946044800F02AFC3146024800F028FCA6
:10348000BDE8F081000001400EB501210846FFF7BC
:103490001BFD0020ADF80800ADF802004FF6FF70EC
:1034A00001902920ADF800006946800700F03EFC3D
:1034B0000121880700F04DF90EBD000010B5022172
:1034C0007C4800F035FA002838D00221794800F015
:1034D0003DF97948007801280CD1764800F01CFAB3
:1034E000764908800020744908700221714800F074
:1034F000AFFA23E06F4800F00FFA7149088001200D
:103500006D4908706E4800886C490988884204DA61
:103510004FF6FF706B49088002E00020694908807F
:103520006748008865490988401A6649098808443F
:103530006549088000215F4800F08AFA04215D484F
:1035400000F0F6F9002838D004215A4800F0FEF8BF
:103550005E48007801280CD1564800F0E0F95C493B
:1035600008800020594908700221524800F0D4FA1E
:1035700023E0504800F0D3F9564908800120534910
:1035800008705448008852490988884204DA4FF686
:10359000FF704C49088002E000204A4908804D48ED
:1035A00000884B490988401A4649098808444A4915
:1035B000088000213F4800F0AFFA08213D4800F0A4
:1035C000B7F9C0B308213B4800F0C0F84348007881
:1035D00001280CD1374800F0A5F9414908800020A6
:1035E0003E4908700221334800F000FB23E03148D7
:1035F00000F098F93B4908800120384908703948A3
:10360000008837490988884204DA4FF6FF702D494F
:10361000088002E000202B490880324800883049A9
:103620000988401A2749098808442F490880002141
:10363000204800F0DBFA10211E4800F079F9C0B3F1
:1036400010211C4800F082F82848007801280CD18D
:10365000184800F06AF926490880002023490870BC
:103660000221144800F014FB23E0124800F05DF939
:103670002049088001201D4908701E4800881C4907
:103680000988884204DA4FF6FF700E49088002E08C
:1036900000200C4908801748008815490988401AFD
:1036A000084909880844144908800021014800F0AD
:1036B000EFFA10BD000400401400002018000020A4
:1036C00020000020280000202A00002015000020F3
:1036D0001A000020220000202C00002016000020EC
:1036E0001C000020240000202E00002017000020D5
:1036F0001E00002026000020300000200EB5012111
:103700000820FFF7E1FB0020ADF80800ADF802004B
:103710004FF6FF7001902920ADF80000694604487B
:1037200000F004FB0121024800F013F80EBD000078
:10373000000C004021B1028842F08002028004E0C7
:1037400002884FF67F731A4002807047CA43028294
:10375000704721B1028842F00102028004E0028831
:103760004FF6FE731A400280704731B1B0F8442022
:1037700042F40042A0F8442005E0B0F84420C2F32F
:103780000E02A0F84420704710B504465548844204
:1037900008D101210846FFF7C7FB00210120FFF7F0
:1037A000C3FB9DE0B4F1804F08D101210846FFF72B
:1037B0009BFB00210120FFF797FB91E04A488442E0
:1037C00008D101210220FFF78FFB00210220FFF723
:1037D0008BFB85E04548844208D101210420FFF796
:1037E00083FB00210420FFF77FFB79E040488442FF
:1037F00008D101210820FFF777FB00210820FFF7FF
:1038000073FB6DE03B48844208D101211020FFF793
:103810006BFB00211020FFF767FB61E03648844214
:1038200008D101212020FFF75FFB00212020FFF7B6
:103830005BFB55E03148844208D101210220FFF7AB
:1038400073FB00210220FFF76FFB49E02C48844204
:1038500009D101210804FFF767FB00214FF48030F4
:10386000FFF762FB3CE02748844209D1012148046C
:10387000FFF75AFB00214FF40030FFF755FB2FE014
:103880002148844209D101218804FFF74DFB002122
:103890004FF48020FFF748FB22E01C48844208D107
:1038A00001214020FFF720FB00214020FFF71CFBF7
:1038B00016E01748844208D101218020FFF714FB4D
:1038C00000218020FFF710FB0AE01248844207D154
:1038D00001218015FFF708FB0021A015FFF704FB6D
:1038E00010BD00000000014000040040000800403E
:1038F000000C004000100040001400400004014093
:1039000000400140004401400048014000180040D0
:10391000001C0040002000400146486B70470146F3
:10392000886B70470146C86B70470146086C70474A
:1039300030B50246002000230024158A05EA010361
:10394000958905EA010413B10CB1012000E00020C3
:1039500030BD70B505460C46208850B92389A28831
:1039600061882846FFF7E4FCE188284600F0B2F9B8
:1039700025E0208804280AD12389A2886188284666
:10398000FFF7F3FCE188284600F0ADF917E0208846
:1039900008280AD12389A28861882846FFF70DFDEF
:1039A000E188284600F0ACF909E02389A288618803
:1039B0002846FFF726FDE188284600F0AAF970BDE9
:1039C0001AB183890B43838102E083898B4383810E
:1039D0007047000070B5002400220023058C4FF6CC
:1039E000FE7635400584028C8388048B4FF68F75F4
:1039F0002C40B51E2C400D882C43751E2A408D8905
:103A00002A434D882A43104DA84202D00F4DA842A8
:103A100013D14FF6F7752A40CD892A434FF6FB752F
:103A20002A408D882A434FF6FF652B404FF6FF55FD
:103A30002B400D8A2B434D8A2B43838004838D6852
:103A40004563028470BD0000000001400004014095
:103A50000A460021018C4FF6FD7319401143018481
:103A600070470A460021018B4FF6F7731940114346
:103A70000183704770B5002400220023058C4FF6A7
:103A8000EF7635400584028C8388048B48F6FF75F9
:103A90002C404FF6FF452C400D884FF6FF7606EA86
:103AA00005252C434FF6DF752A408D8906EA05155A
:103AB0002A434D8806EA05152A43154DA84202D02F
:103AC000144DA8421DD14FF67F752A40CD894FF67F
:103AD000FF7606EA05152A434FF6BF752A408D8802
:103AE00006EA05152A434FF6FF352B404FF2FF75C6
:103AF0002B400D8A06EA85052B434D8A06EA85058B
:103B00002B43838004838D688563028470BD00002D
:103B100000000140000401400A460021018C4FF6DC
:103B2000DF7319404FF6FF7303EA02131943018450
:103B300070470A460021018B4FF2FF7319404FF680
:103B4000FF7303EA022319430183704770B5002411
:103B500000220023058C4FF6FF6635400584028C59
:103B60008388848B4FF68F752C404FF6FC752C4064
:103B70000D882C434FF6FF552A408D894FF6FF766E
:103B800006EA05252A434D8806EA05252A43154DF0
:103B9000A84202D0144DA8421DD14FF2FF752A4011
:103BA000CD894FF6FF7606EA05252A434FF6FF3505
:103BB0002A408D8806EA05252A434EF6FF752B40DC
:103BC0004DF6FF752B400D8A06EA05152B434D8AED
:103BD00006EA05152B43838084838D68C5630284C0
:103BE00070BD000000000140000401400A460021B1
:103BF000018C4FF6FF5319404FF6FF7303EA02237F
:103C00001943018470470A460021818B4FF6F773F0
:103C1000194011438183704770B5002200230024AE
:103C2000058C4EF6FF7635400584038C8488828BA4
:103C300048F6FF752A404FF6FF452A400D884FF69B
:103C4000FF7606EA05252A434DF6FF752B408D8940
:103C500006EA05352B434D8806EA05352B430A4D08
:103C6000A84202D0094DA84208D14BF6FF752C405E
:103C70000D8A4FF6FF7606EA85152C4384808283F1
:103C80008D680564038470BD00000140000401409C
:103C90000A460021018C4DF6FF7319404FF6FF7361
:103CA00003EA02331943018470470A460021818BDD
:103CB0004FF2FF7319404FF6FF7303EA02231943D3
:103CC000818370474163704781637047C163704768
:103CD00001647047028B4FF6F3731A400283028B24
:103CE0000A4302837047028B4FF2FF331A4002836C
:103CF000028B4FF6FF7303EA01231A4302837047D6
:103D0000828B4FF6F3731A408283828B0A4382833D
:103D10007047828B4FF2FF331A408283828B4FF6BB
:103D2000FF7303EA01231A4382837047002202884B
:103D3000184B98420ED0184B98420BD0B0F1804FE0
:103D400008D0164B984205D0154B984202D0154B1F
:103D5000984204D14FF68F731A404B881A43124B86
:103D6000984207D0114B984204D04FF6FF431A40B7
:103D70000B891A4302804B68C3620B880385054B8D
:103D8000984202D0044B984201D18B7A03860123DA
:103D9000838270470000014000040140000400409D
:103DA00000080040000C00400010004000140040DB
:103DB00000B58BB001210846FFF776F801210846CF
:103DC000FFF7A2F802208DF8280000208DF82A00C5
:103DD0004FF47060099001208DF82B0003208DF8BE
:103DE000290009A93248FDF735FC01220821304895
:103DF000FDF778FC012209212D48FDF773FC012213
:103E00000A212B48FDF76EFC01220B212848FDF703
:103E100069FC2848FFF7B8FC0020ADF82000ADF899
:103E20001A0040F6C31007905320ADF81800002088
:103E30008DF8220006A91F48FFF778FF6020ADF833
:103E400004000020ADF810000120ADF806004FF48A
:103E50007A70039001A91748FFF7BCFD01211548AE
:103E6000FFF7FFFD01A91348FFF704FE01211148E8
:103E7000FFF75FFE01A90F48FFF768FE01210D481B
:103E8000FFF7C1FE01A90B48FFF7C6FE0121094853
:103E9000FFF70BFF01210748FFF74CFC0121054804
:103EA000FFF763FC01210348FFF753FC0BB000BD93
:103EB000000002400000014002460020B1F5007FF2
:103EC00000D100BF13880B400BB1012000E000209F
:103ED0007047C1F308028280704700BFFEE7000010
:103EE00010B500241348006820F4402011490860F0
:103EF00008460068086001200F49086002F0CCF80D
:103F000001200E49C1F8A00202F0C6F807E0601CCB
:103F1000C4B2FF2C03DDFDF7A3FD012010BD064850
:103F2000803800680028F2D10349091F086000BFEB
:103F3000F4E7000000040240A482404200804042B6
:103F40000FB4054B10B503A9044A029801F0F8F923
:103F500010BC5DF814FB00000D6100083801002062
:103F600003B401984100009850EAC12018BF042012
:103F70004A0D18BF40F0010040F2FF72B2EB515FF2
:103F800008BF40F00200012808BF052002B07047BA
:103F900070B5C1482DED020B2DED0E8B82B0119D39
:103FA00025F000449FEDBEDB9FEDBFEB844240DB7C
:103FB000A4F140511098A1F17F6108430ED0BC4894
:103FC000844202DC27D1109828B39DED100B53ECEE
:103FD000102B51EC100BFCF753F927E09DED100B63
:103FE00053EC1D2B51EC100BFCF7F1F99DED100B70
:103FF00041EC180B53EC1E2B51EC100BFCF7E7F9BE
:1040000053EC182BFCF73CF941EC100B02B0BDEC63
:104010000E8B02B070BD012001F0DAF89FEDA60B07
:1040200053EC102B51EC100BFCF743FA41EC100B46
:10403000ECE7A3489FEDA48B844256DA9DED100B6C
:10404000B4F1795F0ADA51EC100BFFF789FF04280D
:1040500008BF01F09DF89DED100BD7E753EC102B36
:1040600051EC100BFCF7B3F941EC190B9848062101
:10407000B0EE490AF0EE690A784400F075FF53EC9F
:10408000192B51EC100BFCF7A2F941EC1A0B9148DB
:10409000B0EE490AF0EE690A0421784400F064FFAA
:1040A00053EC192B51EC100BFCF791F953EC182B36
:1040B000FCF7E6F841EC100B51EC1A0B53EC102B0B
:1040C000FCF7F7F9CDE900019DED000B53EC102B47
:1040D0009DED100B51EC100BFCF779F99DED101BC9
:1040E00053EC112BFCF7CCF8A0E79DED100B51EC35
:1040F000100B01F0FFFF53EC182BFCF765F99FED57
:10410000760BCDE9000153EC102B9DED000B51EC2B
:10411000100BFCF75CF941EC190B71480621B0EE6D
:10412000490AF0EE690A784400F01EFF53EC192B9F
:1041300051EC100BFCF74BF941EC1B0B6948B0EE4E
:10414000490AF0EE690A0421784400F00DFF53ECAF
:10415000192B51EC100BFCF73AF953EC182BFCF728
:104160008FF841EC1C0B51EC190B02F0FFFF41ECF6
:10417000180B5D489FED5EABA04222DC53EC1C2B7C
:1041800051EC1B0BFCF795F9CDE900019DED000BFF
:1041900051EC180B53EC102BFCF719F953EC182BBE
:1041A000FCF76EF853EC1A2BFCF711F953EC1D2BAE
:1041B000FCF707F953EC1E2BFCF706F941EC100B4A
:1041C0005FE08DED008B002000909DED000B51EC29
:1041D000180B53EC102BFCF753F89DED000B41EC42
:1041E0001E0B53EC102B51EC100BFCF7F0F853ECBA
:1041F000192BFCF7E9F853EC1E2BFCF75AF941ECAC
:10420000190B53EC1C2B51EC1B0BFCF752F941EC36
:104210001B0B53EC1A2B51EC190BFCF7D8F853EC91
:104220001D2BFCF7D1F841EC190B53EC1A2B51EC78
:10423000180BFCF7CCF853EC1B2BFCF7C8F853EC2D
:10424000192BFCF7BEF89DED000B41EC180B53EC5D
:104250001A2B51EC100BFCF7BAF89FED279B53EC8F
:10426000192BFCF7B1F841EC100B51EC180B53EC87
:10427000102BFCF7A6F853EC192BFCF7A5F841EC32
:10428000100B002D3FF7C2AE51EC100B81F0004136
:10429000CCE60000000000000000F03F000000003D
:1042A000075C143326A6913C182D4454FB21F93F9A
:1042B0000000F07F0000000000000000000000008F
:1042C0000000E03F00000000000000000000F03FA0
:1042D000B4330000C2330000000000000000E03FE3
:1042E00006330000143300003333EF3F00000000BA
:1042F0000000000000000040182D4454FB21E93F5D
:1043000070B59D482DED020B2DED068B079D25F018
:104310000044A0421DDC9948844202DC0FD106987B
:1043200068B19DED060B53EC102B51EC100BFBF715
:10433000A7FFBDEC068B02B041EC100B70BD002D49
:10434000CCBF9FED8F0B9FED900BBDEC068B02B0A9
:1043500070BD8F48A04215DD8E48A042D8BF4FF0F7
:10436000FF3458DD9DED060B51EC100BFFF7F8FD07
:10437000042808BF00F00CFF9DED060BBDEC068B7A
:1043800002B070BD9DED060B51EC100B01F0B2FEBA
:10439000CDE9060180489FED828BA0423CDD82483A
:1043A000A0421FDD00249FED82AB9DED060B53EC78
:1043B0001A2B51EC100BFBF763FF9DED060B41EC44
:1043C000190B53EC1A2B51EC100BFCF700F853ECC3
:1043D000182BFBF7F6FF53EC192BFCF76AF8CDE925
:1043E000060149E09DED060B012453EC182B51EC1E
:1043F000100BFBF745FF9DED060B41EC190B53EC41
:10440000182B51EC100BFBF7DCFF53EC192BFCF7CE
:1044100050F8CDE906012FE06748A0421FDD0224D5
:104420009FED679B9DED060B53EC192B51EC100B88
:10443000FBF7CDFF53EC182BFBF722FF9DED060B8E
:1044400041EC180B53EC192B51EC100BFBF7B9FF97
:1044500053EC182BFCF72DF8CDE906010CE09DED8F
:10446000060B032453EC102B9FED570B51EC100B54
:10447000FCF71FF8CDE906019DED060B53EC102B60
:1044800051EC100BFBF7A3FF41EC180B53EC182B6E
:10449000FBF79DFF41EC190B4D480621B0EE490A90
:1044A000F0EE690A784400F05FFD53EC182B51ECF4
:1044B000100BFBF78CFF41EC180B4648B0EE490A95
:1044C000F0EE690A0521784400F04EFD53EC192BFB
:1044D00051EC100BFBF77BFF41EC100B51EC180B70
:1044E00053EC102B002C0EDAFBF7CAFE9DED061BD9
:1044F00053EC112BFBF76BFF9DED061B53EC112BBF
:10450000FBF762FF35E0FBF7BBFE9DED061B53ECAE
:10451000112BFBF75CFF41EC100B2F48784400EBAC
:10452000C40090ED001B51EC100B53EC112BFBF76A
:1045300048FF9DED061B53EC112BFBF742FF41ECAE
:10454000100B2648784400EBC40090ED001B51ECA2
:10455000100B53EC112BFBF737FF41EC100B002D28
:10456000A2BFBDEC068B02B070BD51EC100B81F008
:10457000004141EC100B01E7000010440000F07F07
:10458000182D4454FB21F93F182D4454FB21F9BF49
:104590000000DC3F0000203E0000F33F0000000070
:1045A000000000000000F03F0000E63F00000000B7
:1045B00000000000000000400080034000000000F8
:1045C000000000000000F83F000000000000F0BF05
:1045D00040300000F62F0000802F0000382F000030
:1045E00070B56B4E2DED040B2DED028B82B0DDF816
:1045F0001CC0DDE905235C422CF000411C4341EA6C
:10460000D474049D22F00040B44205D86C422C437F
:1046100040EAD474B44210D99DED060B53EC102B34
:104620009DED040B51EC100BFBF72AFE41EC100B37
:1046300002B0BDEC028B04B070BDACF14054A4F1EB
:104640007F641C430BD0022404EAAC7444EAD274A5
:1046500005439FED518B9FED522B07D010E09DED50
:10466000040B51EC100B01F002FA39E0002C14BFDE
:10467000012C9DED040BDBD0022C34D0032C37D061
:104680000B439FED491B9FED4A0B0AD0B14218D155
:10469000B04209D121F0804120F08040079105907F
:1046A0000FE0002AC4DA10E0434B7B44002C08BF23
:1046B00093ED000BBCD0012C0CD0022C13D0032C9A
:1046C00016D0B04219D1002AB2DAB0EE410AF0EEAB
:1046D000610AADE793ED000B51EC100B81F0004146
:1046E00041EC100BA4E7B0EE480AF0EE680A9FE731
:1046F000B0EE420AF0EE620A9AE7401A00153C2832
:10470000C8BF8DED000B19DCBCF1000FBEBF10F16E
:104710003C0F9FED2B0B8DED000B0FDB9DED060B82
:1047200053EC102B9DED040B51EC100BFBF7C1FE6D
:1047300001F0E0FC01F09BF9CDE90001002C08BF7D
:104740009DED000B3FF474AF012C10D0022C9FEDB7
:104750001E0B53EC102B9DED000B51EC100B0DD0EC
:10476000FBF72FFE53EC182BFBF72BFEB8E7019855
:1047700080F0004001909DED000B59E7FBF721FE12
:1047800053EC182BFBF720FEAAE700000000000006
:104790000000F07F00000000182D4454FB21094068
:1047A000182D4454FB2109C0182D4454FB21F9BF96
:1047B000182D4454FB21F93F9A2E00000000000000
:1047C0000000000000000000075C143326A6A13C96
:1047D00010B533492DED020B2DED028B84B09FED0A
:1047E0002E8B079820F00040B0EE481AF0EE681AC1
:1047F0008842D8BF9DED060B36DD2A4988420CD190
:10480000069858B94FF0010000F0E2FC53EC182B69
:1048100051EC180BFBF74DFE34E008DB9DED060B69
:1048200053EC102B51EC100BFBF72AFD2AE06846E5
:104830009DED060B00F0C4F810F0030004BF9DEDE1
:10484000021B9DED000B0FD0012810D09DED021B27
:104850009DED000B022818D0012000F001FC04B0EF
:10486000BDEC028B02B010BD00F0C6FAF7E79DED7B
:10487000021B9DED000B012000F0F2FB51EC100B30
:1048800081F0004141EC100BE9E700F0B5FA51EC82
:10489000100B81F00041F5E700000000000000006F
:1048A000FB21E93F0000F07F10B533492DED020BED
:1048B0002DED028B84B09FED2E8B079820F00040E9
:1048C000B0EE481AF0EE681A8842DCBF00209DED79
:1048D000060B35DD294988420CD1069858B94FF0AE
:1048E000010000F075FC53EC182B51EC180BFBF792
:1048F000E0FD3AE008DB9DED060B53EC102B51EC8C
:10490000100BFBF7BDFC30E068469DED060B00F098
:1049100057F810F003000ED0012818D09DED021BAF
:104920009DED000B022819D000F066FA51EC100B37
:1049300081F0004119E09DED021B9DED000B01206F
:1049400000F08EFB04B0BDEC028B02B010BD9DEDFB
:10495000021B9DED000B00F04FFAF3E7012000F081
:104960007FFB51EC100B81F0004141EC100BE9E7AB
:104970000000000000000000FB21E93F0000F07F84
:1049800010B52DED028BB1EEC08A18EE100A20F0A2
:104990000040C0F1FF40C00F0AD010EE100A20F016
:1049A0000040C0F1FF40C00F04BF012000F010FC28
:1049B000B0EE480ABDEC028B10BD00000000000004
:1049C0002DE9F14F04462DED020B2DED088B96B02D
:1049D0009FEDE70B80ED020B1F9EE74826F0004598
:1049E00085420ADC9DED1E0B002084ED000B16B005
:1049F000BDEC088B03B0BDE8F08FE0489FEDE0AB65
:104A00009FEDE1BBA84247DDE14F9FEDE38B9FEDBA
:104A1000E49B9DED1E0B53EC1A2B51EC100B002E5A
:104A20001CDDFBF7CEFC41EC100BBD4208D053EC73
:104A30001B2B51EC100BFBF7C4FCC4E900010BE08D
:104A400053EC182B51EC100BFBF7BBFC53EC192B60
:104A5000FBF7B7FCC4E900010120C8E7FBF710FC35
:104A600041EC100BBD4208D053EC1B2B51EC100B4A
:104A7000FBF706FCC4E900010BE053EC182B51ECEA
:104A8000100BFBF7FDFB53EC192BFBF7F9FBC4E90B
:104A900000014FF0FF30AAE7C348A84279DB9DED43
:104AA0001E0B51EC100B01F025FB41EC180B9FED98
:104AB000C00B53EC102BFBF78AFC9FEDBF1B53EC94
:104AC000112BFBF7DDFBFBF774FD0746FBF760FDE1
:104AD00041EC190B53EC1A2BFBF779FC53EC182B18
:104AE000FBF772FC41EC180B53EC1B2B51EC190B30
:104AF000FBF76DFCDFF8C8A241EC100B4FEA15582C
:104B00000125FA4453EC102B51EC180BFBF759FC20
:104B1000032DC4E900013DD0C1F30A5005EB451156
:104B2000A8EB00001139814234DA0AEB051BB0EE24
:104B300048AA9BED000BF0EE68AA53EC102B51EC49
:104B4000190BFBF744FC41EC1B0B51EC1A0B53EC1B
:104B50001B2BFBF736FC41EC180B51EC1A0B53ECFA
:104B6000182BFBF72EFC53EC1B2BFBF72AFC9BEDC1
:104B7000020B41EC1A0B53EC102B51EC190BFBF709
:104B800026FC53EC1A2BFBF71CFC41EC100B6D1CA4
:104B9000B8E70EE0002EA8BF3846BFF628AF94ED68
:104BA000000B51EC100B81F00041C4E90001784288
:104BB0001DE7C6F3130040F4801005901E980E9078
:104BC000C6F30A50A0F2F53000F01F074111002093
:104BD0000C900D907B48C7F12008784400EB8100D1
:104BE00000F114030DA8062619685A68B94022FA84
:104BF00008F21143059AD0F800A0A1FB02C50E9A55
:104C0000A1FB022192448C44924534BF4FF0010B2A
:104C10004FF0000B50F8042C0CEB0B0E72448C453B
:104C200034BF012100212944BBF1000F02D06245AD
:104C300002D904E0624502D24FF0010C01E04FF0CE
:104C4000000C40F808A96144E0E801121B1F761E21
:104C5000CAD1089800F10050850F0898DDE909676E
:104C60008000DDF82C80FBF793FC41EC1B0B3046F9
:104C7000FBF787FE9FED541B53EC112BFBF7A7FBB3
:104C800041EC180B3846FBF77CFE9FED511B53ECB3
:104C9000112BFBF79CFB41EC190B4046FBF771FE17
:104CA0009FED4D1B53EC112BFBF791FB41EC1A0BC5
:104CB00051EC190B53EC1A2BFBF7E2FA53EC182BBF
:104CC000FBF7DEFA53EC1B2BFBF7DAFACDE9040114
:104CD000002004909DED040B53EC1B2B51EC100BAA
:104CE000FBF76FFB53EC182BFBF76BFB53EC192B0B
:104CF000FBF767FB53EC1A2BFBF766FB9FED381BAA
:104D000053EC112BFBF763FB9FED370B41EC180BBA
:104D100053EC102B9DED040B51EC100BFBF757FBE4
:104D200053EC182BFBF7ACFA9FED310B41EC180B51
:104D300053EC102B9DED040B51EC100BFBF747FBD4
:104D400053EC182BFBF79CFA41EC100B1F9810F05A
:104D5000004F06D06D4251EC100B81F0004141EC48
:104D6000100B284684ED000B41E600000000000017
:104D70000000000000000000FB21E93F7CD9024058
:104D800000004054FB21F93F3163621A61B4D03D09
:104D9000FB21F93F000000000000601A61B4D03D23
:104DA0007370032E8A19A33BFB21394100000000D8
:104DB00083C8C96D305FE43F000000000000E03FA1
:104DC0004A2A0000A2290000000000000000103E56
:104DD000000000000000103C000000000000103A3D
:104DE000182D4454FB21F93D3326A611460B113CE6
:104DF00000000054FB21F93D10B52DED040B2DED05
:104E0000088B82B0B0EE419AF0EE619A0B9820F0D8
:104E100000449FED4BABB4F1795F11DA9DED0A0BC5
:104E200051EC100BFBF7C5FB002801BFB0EE4A0A9E
:104E3000F0EE6A0A02B0BDEC088B04BF04B010BDEE
:104E40009DED0A0B53EC102B51EC100BFBF7BFFA46
:104E500041EC180B3C480621B0EE480AF0EE680A17
:104E6000784400F081F853EC182B51EC100BFBF751
:104E7000AEFA9DED0A0B41EC1B0B53EC192B51ECD8
:104E8000100BFBF7A4FA41EC190B53EC1B2B51EC64
:104E9000180BFBF79CFA53EC192BFBF792FA9FEDDA
:104EA0002C0B41EC190B53EC102B51EC180BFBF7AE
:104EB0008EFA41EC100B2848844210DA53EC192B7F
:104EC00051EC100BFBF77DFA53EC1A2BFBF77CFA35
:104ED00041EC100B02B0BDEC088B04B010BD1F48B4
:104EE000A042BCBF9FED1E1B8DED001B06DBA4F591
:104EF00000100190002000909DED001B51EC100B64
:104F000053EC112BFBF75DFA9DED000B41EC180BF8
:104F100053EC102B51EC1A0BFBF753FA41EC1A0B24
:104F200053EC192B51EC180BFBF74BFA53EC1A2BE3
:104F3000FBF74AFA41EC100BCCE700000000000040
:104F4000000000000000F03FB42600000000000058
:104F5000000000000000E03F3333D33F0000E93F92
:104F6000000000000000D23F70B504462DED028B1A
:104F70004D1E00EBC500B0EE408AF0EE608A90ED69
:104F8000000B35F0060017D053EC182B51EC100B2A
:104F9000FBF71DFA41EC100B6D1E04EBC50090ED04
:104FA000001B51EC100B53EC112BFBF769F941EC92
:104FB000100B35F00600E7D1022D36D0042D1CD0A1
:104FC000062D1CBFBDEC028B70BD53EC182B51ECB1
:104FD000100BFBF7FCF994ED0A1B53EC112BFBF7BC
:104FE0004FF953EC182BFBF7F2F994ED081B53EC37
:104FF000112BFBF745F941EC100B53EC182B51EC3E
:10500000100BFBF7E4F994ED061B53EC112BFBF7A7
:1050100037F953EC182BFBF7DAF994ED040B53EC4A
:10502000102BFBF72DF941EC100B53EC182B51EC26
:10503000100BFBF7CCF994ED021B53EC112BFBF793
:105040001FF953EC182BFBF7C2F994ED001B53EC3E
:10505000112BFBF715F9BDEC028B41EC100B70BD69
:1050600031B504462DED040B2DED0A8BB0EE41BA9F
:10507000F0EE61BA0B989DED0A0B20F00040B0F104
:10508000795F0DDA51EC100BFEF76AFF042808BFB8
:1050900000F07EF89DED0A0BBDEC0A8B05B030BD2B
:1050A00053EC102B51EC100BFBF791F941EC180B62
:1050B0009DED0A0B53EC182B51EC100BFBF787F905
:1050C00041EC190B2C48B0EE480AF0EE680A0521B5
:1050D0007844FFF749FF9FED2ACBB0EE40AAF0EEEF
:1050E00060AA9CB353EC1C2B51EC190BFBF76FF926
:1050F00041EC1C0B53EC1A2B51EC190BFBF767F925
:105100009FED210B41EC190B53EC102B51EC1B0BB9
:10511000FBF75DF953EC192BFBF753F953EC182B04
:10512000FBF755F953EC1B2BFBF74BF953EC1C2BFE
:10513000FBF747F99DED0A1B53EC112BFBF744F9E4
:10514000BDEC0A8B05B041EC100B30BDFFE753EC12
:105150001A2B51EC180BFBF73AF953EC1C2BFBF70D
:105160008FF853EC192BFBF732F99DED0A1B53EC2A
:10517000112BFBF785F8E3E7442500000000000051
:10518000495555555555C5BF000000000000E03F8A
:105190009FED050B10B553EC102B51EC100BFBF7EA
:1051A00016F941EC100B10BD0000000000000010CB
:1051B00002E008C8121F08C1002AFAD170477047E0
:1051C000002001E001C1121F002AFBD1704700003E
:1051D0000149086070470000480100202DE9FF5F89
:1051E000DDE90220010DDDF838B0024318D044F6A5
:1051F0001050A1F2FF3141430D140F98012820D027
:10520000A5EB0B00401C5FEA000A4FF00004474E7C
:10521000DFF81C91A046504616D5CAF1000728E0D9
:105220000F98012443A2012808D0002100980F9B69
:10523000C0E90021C0E90243BDE8FF9F6FEA0B010E
:10524000F4E7CBF10000DEE7074612E0F80707D0ED
:105250002246334640464946FBF7B9F88046894620
:105260002246334610461946FBF7B1F804460E466F
:105270007F10002FEAD1DDE90201BAF1000F4246AA
:105280004B4602DAFBF7A3F801E0FBF712F90446FC
:105290000E460022284BFBF7FDFA03D84FF0FF30F3
:1052A000014607E00022254B20463146FAF7E8FF89
:1052B000FBF7D7FA102409E0002C0ADB0A220023AE
:1052C000FBF7DBF9019B30321A55641E50EA0102EC
:1052D000F2D1641C019AC4F1110314440F9A012AFB
:1052E00003D0012208430DD10AE0084304D0002076
:1052F0004FF0110B0F9080E7A3EB0B056D1E0DE037
:105300005B4504DD4FF0000205F1010504E003DA1E
:105310004FF00002A5F10105002AECD000980F998A
:10532000C0E90231C0E9004586E7000000002440E2
:105330000000F03F300000000000F0430000E03FBC
:105340002DE9FF4F95B09B468946064600250FE2A2
:10535000252877D100242746F84A0121059400E04A
:10536000044316F8013F203B01FA03F01042F7D145
:1053700030782A2811D06FF02F033078A0F1300256
:10538000092A16D8059A44F0020402EB820203EBC4
:1053900042021044761C0590EFE759F8042B059261
:1053A000002A03DA504244F40054059044F0020409
:1053B000761C30782E2816D116F8010F44F004041C
:1053C0002A280DD06FF02F023078A0F13003092B7E
:1053D00009D807EB870302EB4303C718761CF3E7F2
:1053E00059F8047B761C30786C280FD006DC4C28EA
:1053F00017D068280DD06A2814D104E0742810D082
:105400007A280FD10DE044F400140AE044F480142B
:1054100001E044F440147278824202D104F5801411
:10542000761C761C307866280BD013DC582877D091
:1054300009DC002875D04528F6D04628F4D0472846
:105440001AD19DE118E0632835D0642879D0652809
:1054500012D195E1702873D008DC6728F1D0692853
:105460006FD06E280DD06F2806D1B5E073282CD0F0
:10547000752875D0782874D05A46179990476D1CB6
:1054800075E1C4F30250022809D003280DD0D9F8E1
:10549000001004280DD00D6009F1040967E1D9F866
:1054A0000010EA17C1E90052F6E7D9F800100D80A4
:1054B000F2E70D70F0E719F8041B8DF800100020DA
:1054C0008DF80100EA46012003E059F804AB4FF0E3
:1054D000FF3061074FF0000102D40DE008F1010137
:1054E0008846B9420FDA8045F8DB1AF8081000291F
:1054F000F4D108E008F1010188468142FADB1AF88C
:1055000008100029F6D105985B46A0EB0807214654
:105510003846179A00F094FA284400EB080507E093
:105520004DE029E10DE01AF8010B5A461799904712
:10553000B8F10108F7D25B4621463846179A13E1C5
:1055400042E00A220092C4F302524FF0000A022AFB
:1055500008D059F804CB032A4FEAEC710AD00DE0C9
:1055600029E02AE009F1070121F00702F2E802C16F
:10557000914609E00FFA8CFC4FEAEC71042A03D142
:105580004FFA8CFC4FEAEC71002907DA0A46002139
:10559000DCF1000C61EB02012D2202E0220504D5B2
:1055A0002B228DF80420012203E0E20701D0202203
:1055B000F7E7904659E00A2102E010220DE01021A1
:1055C0004FF0000A00910BE010224FF0000A44F067
:1055D00004040827009203E008224FF0000A00921A
:1055E000C4F30252022A05D059F804CB0021032A41
:1055F00008D009E009F1070121F00702F2E802C131
:10560000914605E01FFA8CFC042A01D10CF0FF0C36
:105610004FF00008220728D5702806D0009B83F0A1
:10562000100353EA0A0305D00EE040228DF804204F
:10563000012208E05CEA010206D030228DF8042045
:105640008DF8050002229046009B83F0080353EA80
:105650000A030AD15CEA010201D1620705D53022B2
:105660008DF804204FF001087F1E582804D034A084
:1056700003900EA802900DE036A0F9E7534660466D
:10568000009AFAF7FAFF84460398825C0298401E5B
:10569000029002705CEA0100F0D1029806A9081A93
:1056A00000F1200A600702D524F4803400E00127CD
:1056B000574502DDA7EB0A0000E0002000EB0A01DD
:1056C000009005984144401A0590E00306D45B46DB
:1056D0002146179A059800F0B3F90544002706E023
:1056E00001A85A46C05D179990476D1C7F1C47451D
:1056F000F6DBE0030CD55B462146179A059800F0CF
:105700009FF9054404E030205A46179990476D1CD4
:105710000099481E00900029F5DC08E002980299E3
:105720005A460078491C0291179990476D1CBAF1AE
:105730000001AAF1010AF1DC65E10000092801007D
:1057400030313233343536373839616263646566F7
:1057500000000000303132333435363738394142B9
:10576000434445460000000000F058F90544761C0B
:10577000307800287FF4ECAD19B02846BDE8F08FF2
:10578000620700D4062709F1070222F0070CFCE8A3
:105790000223E14603F000485FEA080C02D00FF252
:1057A000702C0DE05FEA045C02D50FF2682C07E074
:1057B0005FEAC47C02D00FF2602C01E0AFF2700C03
:1057C0004FF0FF3823F00043CDF850C065280CD0CF
:1057D00006DC452809D046281DD047283DD13DE0AC
:1057E000662818D067287ED138E00021112F01DB10
:1057F000112000E0781CCDE9000106A90EA8FFF7F2
:10580000EDFCDDE90F010E9A03910021009207F1F2
:10581000010A04914DE04FF000400097CDE90110DE
:1058200006A90EA8FFF7DAFCDDE90F0203920E9B32
:1058300011990022DDF80CA00093049211B9791C93
:1058400000EB010AB7EB0A0004D4C0F1FF3007F106
:10585000010A0490AAEB0700019044E0012F00DA4E
:1058600001270021112F01DD112000E03846CDE98C
:10587000000106A90EA8FFF7B1FCDDE90F010E9AA1
:105880000391002104910092BA4621070CD4039998
:10589000514500DA8A46BAF1010F05DD009AAAF1F6
:1058A0000101515C302908D0B84202DA10F1040F2E
:1058B00006DA0121CDE9011015E0AAF10101E9E7BD
:1058C000002805DC049901440491AAEB000102E0E0
:1058D000411C514500DD8A460499401A401C019044
:1058E0004FF000400290200704D40198504501DB9E
:1058F000CDF8048000208DF84F0002980DF14F077D
:10590000B0F1004F25D02B200E9002984FF00208E6
:1059100000280CDA404202902D200E9007E00A2168
:105920000298FAF794FE3031029007F8011DB8F1A1
:105930000001A8F10108F2DC02980028EFD1791EDD
:105940000E980870307800F0200040F0450007F80D
:10595000020D12A8C01B00F107081498007800B1CE
:10596000012000EB0A01019801EBE0710598414428
:10597000401A401E0590E00306D45B462146179A64
:10598000059800F05DF805441498007818B15A465F
:10599000179990476D1CE00324D55B462146179A62
:1059A000059800F04DF805441CE00498002807DB3A
:1059B000DDE90301884203DD0098405C179901E0AE
:1059C000179930205A469047049805F10105401C6C
:1059D00004900198401E019004D12E205A46179938
:1059E00090476D1CBAF10001AAF1010ADDDC05E067
:1059F00017F8010B5A46179990476D1CB8F1000132
:105A0000A8F10108F4DC5B462146179A0598ABE63D
:105A10002D0000002B000000200000002DE9F041C7
:105A2000044600251E461746880404D405E039467E
:105A30002020B0476D1C641EF9D52846BDE8F081D2
:105A40002DE9F041044600251E469046C80301D5C5
:105A5000302700E02027880404D505E04146384679
:105A6000B0476D1C641EF9D52846BDE8F08110B51D
:105A700041EC100BFEF744FC51EC100B10BD000084
:105A800000B52DED0C8B8BB0FE4890ED000AFE4862
:105A9000D0ED000A30EE600AFC48D0ED000AFC4868
:105AA00090ED001A70EEC10AB4EEE00AF1EE10FAC1
:105AB0007EDBF44890ED000AF348D0ED000A30EEAA
:105AC000600AF448D0ED000AF34890ED001A70EE39
:105AD000C10AB4EEE00AF1EE10FA69DBB7EE000A93
